{
  "contractName": "SignatureReg",
  "abi": [
    {
      "constant": false,
      "inputs": [
        {
          "name": "_new",
          "type": "address"
        }
      ],
      "name": "setOwner",
      "outputs": [],
      "payable": false,
      "stateMutability": "nonpayable",
      "type": "function"
    },
    {
      "constant": true,
      "inputs": [],
      "name": "totalSignatures",
      "outputs": [
        {
          "name": "",
          "type": "uint256"
        }
      ],
      "payable": false,
      "stateMutability": "view",
      "type": "function"
    },
    {
      "constant": true,
      "inputs": [],
      "name": "owner",
      "outputs": [
        {
          "name": "",
          "type": "address"
        }
      ],
      "payable": false,
      "stateMutability": "view",
      "type": "function"
    },
    {
      "constant": true,
      "inputs": [
        {
          "name": "",
          "type": "bytes4"
        }
      ],
      "name": "entries",
      "outputs": [
        {
          "name": "",
          "type": "string"
        }
      ],
      "payable": false,
      "stateMutability": "view",
      "type": "function"
    },
    {
      "inputs": [],
      "payable": false,
      "stateMutability": "nonpayable",
      "type": "constructor"
    },
    {
      "anonymous": false,
      "inputs": [
        {
          "indexed": true,
          "name": "creator",
          "type": "address"
        },
        {
          "indexed": true,
          "name": "signature",
          "type": "bytes4"
        },
        {
          "indexed": false,
          "name": "method",
          "type": "string"
        }
      ],
      "name": "Registered",
      "type": "event"
    },
    {
      "anonymous": false,
      "inputs": [
        {
          "indexed": true,
          "name": "old",
          "type": "address"
        },
        {
          "indexed": true,
          "name": "current",
          "type": "address"
        }
      ],
      "name": "NewOwner",
      "type": "event"
    },
    {
      "constant": false,
      "inputs": [
        {
          "name": "_method",
          "type": "string"
        }
      ],
      "name": "register",
      "outputs": [
        {
          "name": "",
          "type": "bool"
        }
      ],
      "payable": false,
      "stateMutability": "nonpayable",
      "type": "function"
    },
    {
      "constant": false,
      "inputs": [],
      "name": "drain",
      "outputs": [],
      "payable": false,
      "stateMutability": "nonpayable",
      "type": "function"
    }
  ],
  "bytecode": "0x6080604052336000806101000a81548173ffffffffffffffffffffffffffffffffffffffff021916908373ffffffffffffffffffffffffffffffffffffffff160217905550600060025534801561005557600080fd5b506100a36040805190810160405280601081526020017f726567697374657228737472696e6729000000000000000000000000000000008152506100a9640100000000026401000000009004565b5061039a565b6000610126826040518082805190602001908083835b6020831015156100e457805182526020820191506020810190506020830392506100bf565b6001836020036101000a03801982511681845116808217855250505050505090500191505060405180910390208361012d640100000000026401000000009004565b9050919050565b600082600060016000837bffffffffffffffffffffffffffffffffffffffffffffffffffffffff19167bffffffffffffffffffffffffffffffffffffffffffffffffffffffff191681526020019081526020016000208054600181600116156101000203166002900490501415156101a4576102ee565b8260016000867bffffffffffffffffffffffffffffffffffffffffffffffffffffffff19167bffffffffffffffffffffffffffffffffffffffffffffffffffffffff1916815260200190815260200160002090805190602001906102099291906102f5565b50600160025401600281905550837bffffffffffffffffffffffffffffffffffffffffffffffffffffffff19163373ffffffffffffffffffffffffffffffffffffffff167f50e01e16719d6c699e516c57f4c514e77f6bc21a978d33f23980acdddbcbd0b2856040518080602001828103825283818151815260200191508051906020019080838360005b838110156102af578082015181840152602081019050610294565b50505050905090810190601f1680156102dc5780820380516001836020036101000a031916815260200191505b509250505060405180910390a3600191505b5092915050565b828054600181600116156101000203166002900490600052602060002090601f016020900481019282601f1061033657805160ff1916838001178555610364565b82800160010185558215610364579182015b82811115610363578251825591602001919060010190610348565b5b5090506103719190610375565b5090565b61039791905b8082111561039357600081600090555060010161037b565b5090565b90565b61085c806103a96000396000f300608060405260043610610078576000357c0100000000000000000000000000000000000000000000000000000000900463ffffffff16806313af40351461007d5780633015a521146100c05780638da5cb5b146100eb5780639890220b14610142578063b46bcdaa14610159578063f2c298be1461021e575b600080fd5b34801561008957600080fd5b506100be600480360381019080803573ffffffffffffffffffffffffffffffffffffffff16906020019092919050505061029f565b005b3480156100cc57600080fd5b506100d56103b8565b6040518082815260200191505060405180910390f35b3480156100f757600080fd5b506101006103be565b604051808273ffffffffffffffffffffffffffffffffffffffff1673ffffffffffffffffffffffffffffffffffffffff16815260200191505060405180910390f35b34801561014e57600080fd5b506101576103e3565b005b34801561016557600080fd5b506101a360048036038101908080357bffffffffffffffffffffffffffffffffffffffffffffffffffffffff1916906020019092919050505061049e565b6040518080602001828103825283818151815260200191508051906020019080838360005b838110156101e35780820151818401526020810190506101c8565b50505050905090810190601f1680156102105780820380516001836020036101000a031916815260200191505b509250505060405180910390f35b34801561022a57600080fd5b50610285600480360381019080803590602001908201803590602001908080601f016020809104026020016040519081016040528093929190818152602001838380828437820191505050505050919291929050505061054e565b604051808215151515815260200191505060405180910390f35b6000809054906101000a900473ffffffffffffffffffffffffffffffffffffffff1673ffffffffffffffffffffffffffffffffffffffff163373ffffffffffffffffffffffffffffffffffffffff161415156102fa57600080fd5b8073ffffffffffffffffffffffffffffffffffffffff166000809054906101000a900473ffffffffffffffffffffffffffffffffffffffff1673ffffffffffffffffffffffffffffffffffffffff167f70aea8d848e8a90fb7661b227dc522eb6395c3dac71b63cb59edd5c9899b236460405160405180910390a3806000806101000a81548173ffffffffffffffffffffffffffffffffffffffff021916908373ffffffffffffffffffffffffffffffffffffffff16021790555050565b60025481565b6000809054906101000a900473ffffffffffffffffffffffffffffffffffffffff1681565b6000809054906101000a900473ffffffffffffffffffffffffffffffffffffffff1673ffffffffffffffffffffffffffffffffffffffff163373ffffffffffffffffffffffffffffffffffffffff1614151561043e57600080fd5b3373ffffffffffffffffffffffffffffffffffffffff166108fc3073ffffffffffffffffffffffffffffffffffffffff16319081150290604051600060405180830381858888f1935050505015801561049b573d6000803e3d6000fd5b50565b60016020528060005260406000206000915090508054600181600116156101000203166002900480601f0160208091040260200160405190810160405280929190818152602001828054600181600116156101000203166002900480156105465780601f1061051b57610100808354040283529160200191610546565b820191906000526020600020905b81548152906001019060200180831161052957829003601f168201915b505050505081565b60006105bc826040518082805190602001908083835b6020831015156105895780518252602082019150602081019050602083039250610564565b6001836020036101000a0380198251168184511680821785525050505050509050019150506040518091039020836105c3565b9050919050565b600082600060016000837bffffffffffffffffffffffffffffffffffffffffffffffffffffffff19167bffffffffffffffffffffffffffffffffffffffffffffffffffffffff1916815260200190815260200160002080546001816001161561010002031660029004905014151561063a57610784565b8260016000867bffffffffffffffffffffffffffffffffffffffffffffffffffffffff19167bffffffffffffffffffffffffffffffffffffffffffffffffffffffff19168152602001908152602001600020908051906020019061069f92919061078b565b50600160025401600281905550837bffffffffffffffffffffffffffffffffffffffffffffffffffffffff19163373ffffffffffffffffffffffffffffffffffffffff167f50e01e16719d6c699e516c57f4c514e77f6bc21a978d33f23980acdddbcbd0b2856040518080602001828103825283818151815260200191508051906020019080838360005b8381101561074557808201518184015260208101905061072a565b50505050905090810190601f1680156107725780820380516001836020036101000a031916815260200191505b509250505060405180910390a3600191505b5092915050565b828054600181600116156101000203166002900490600052602060002090601f016020900481019282601f106107cc57805160ff19168380011785556107fa565b828001600101855582156107fa579182015b828111156107f95782518255916020019190600101906107de565b5b509050610807919061080b565b5090565b61082d91905b80821115610829576000816000905550600101610811565b5090565b905600a165627a7a72305820eb3b7ebe4271bbef7e318e0278e68883a30caff6461a2fd3e0830d38fb1b1a6b0029",
  "source": "//! A decentralised registry of 4-bytes signatures => method mappings\n//!\n//! Copyright 2016 Jaco Greef, Parity Technologies Ltd.\n//!\n//! Licensed under the Apache License, Version 2.0 (the \"License\");\n//! you may not use this file except in compliance with the License.\n//! You may obtain a copy of the License at\n//!\n//!     http://www.apache.org/licenses/LICENSE-2.0\n//!\n//! Unless required by applicable law or agreed to in writing, software\n//! distributed under the License is distributed on an \"AS IS\" BASIS,\n//! WITHOUT WARRANTIES OR CONDITIONS OF ANY KIND, either express or implied.\n//! See the License for the specific language governing permissions and\n//! limitations under the License.\n\npragma solidity ^0.4.1;\n\nimport \"./Owned.sol\";\n\n\ncontract SignatureReg is Owned {\n\t// mapping of signatures to entries\n\tmapping (bytes4 => string) public entries;\n\n\t// the total count of registered signatures\n\tuint public totalSignatures = 0;\n\n\t// allow only new calls to go in\n\tmodifier whenUnregistered(bytes4 _signature) {\n\t\tif (bytes(entries[_signature]).length != 0)\n\t\t\treturn;\n\t\t_;\n\t}\n\n\t// dispatched when a new signature is registered\n\tevent Registered(address indexed creator, bytes4 indexed signature, string method);\n\n\t// constructor with self-registration\n\tconstructor() public {\n\t\tregister(\"register(string)\");\n\t}\n\n\t// registers a method mapping\n\tfunction register(string _method) public returns (bool) {\n\t\treturn _register(bytes4(keccak256(_method)), _method);\n\t}\n\n\t// in the case of any extra funds\n\tfunction drain() onlyOwner public {\n\t\tmsg.sender.transfer(address(this).balance);\n\t}\n\n\t// internal register function, signature => method\n\tfunction _register(bytes4 _signature, string _method) whenUnregistered(_signature) internal returns (bool) {\n\t\tentries[_signature] = _method;\n\t\ttotalSignatures = totalSignatures + 1;\n\t\temit Registered(msg.sender, _signature, _method);\n\t\treturn true;\n\t}\n}\n",
  "sourcePath": "/home/sorpaas/repos/signature-registry/contracts/SignatureReg.sol",
  "compiler": {
    "name": "solc",
    "version": "0.4.23+commit.124ca40d.Emscripten.clang"
  },
  "schemaVersion": "2.0.0",
  "updatedAt": "2018-05-10T09:51:30.809Z"
}